:020000040800F2
:1000000000000320B5110008A5080008B108000889
:10001000B9080008C1080008C9080008000000006D
:10002000000000000000000000000000D1080008EF
:10003000DD08000800000000E908000801090008C8
:100040000512000805120008051200080512000834
:100050000512000805120008051200080512000824
:100060000512000805120008051200080512000814
:100070000512000805120008051200080512000804
:1000800005120008051200080512000805120008F4
:1000900005120008051200080512000805120008E4
:1000A00005120008051200080512000805120008D4
:1000B00005120008051200080512000805120008C4
:1000C00005120008051200080512000805120008B4
:1000D00005120008051200080512000805120008A4
:1000E0000512000805120008051200080512000894
:1000F0000512000805120008051200080512000884
:100100000512000805120008051200080512000873
:100110000512000805120008051200080512000863
:100120000512000805120008051200080512000853
:100130000512000805120008051200080512000843
:100140000512000805120008051200080512000833
:100150000512000805120008051200080512000823
:100160000512000805120008051200080512000813
:100170000512000805120008051200080000000022
:1001800005120008051200080512000805120008F3
:1001900005120008051200080512000805120008E3
:0C01A000051200080512000805120008F6
:1002000010B5054C237833B9044B13B10448AFF350
:1002100000800123237010BD400400200000000076
:1002200064120008084B10B51BB108480849AFF329
:1002300000800848036803B910BD074B002BFBD0B2
:10024000BDE81040184700BF00000000641200081D
:1002500044040020400400200000000080B483B06B
:1002600000AF03463960FB7197F90730002B0BDABA
:100270000D49FB7903F00F03043B3A68D2B2120137
:10028000D2B20B441A7609E0084997F907303A6868
:10029000D2B21201D2B20B4483F800230C37BD4610
:1002A0005DF8047B704700BF00ED00E000E100E076
:1002B00080B582B000AF78607B68013BB3F1807F8E
:1002C00001D301230FE00A4A7B68013B53604FF0E2
:1002D000FF300F21FFF7C2FF054B00229A60044B4D
:1002E00007221A60002318460837BD4680BD00BFAC
:1002F00010E000E080B483B000AF78607A68134605
:100300005B00134418460C37BD465DF8047B70470C
:1003100080B500AF00F0F6F900F076F900F0C6F90C
:1003200000F004F800F070FFFEE700BF80B500AFFA
:10033000064B1B68064AA2FB03239B091846FFF7DE
:10034000B7FF0346002B00D0FEE780BD0000002071
:10035000D34D621080B400AF124A124B1B6843F0B9
:10036000010313600F4B00229A600E4A0D4B1B686D
:1003700023F0847323F4803313600A4B0A4A5A60D3
:10038000084A084B1B6823F480231360054B0022A6
:10039000DA60064B4FF000629A60BD465DF8047B60
:1003A000704700BF003802401030002400ED00E02C
:1003B00080B487B000AF00233B6100237B61022340
:1003C000FB600023BB6002237B60324B9B6803F021
:1003D0000C033B613B69042B07D0082B09D0002B91
:1003E0003FD12D4B2D4A1A603FE02B4B2C4A1A600F
:1003F0003BE0284B5B6803F480039B0DBB60254BFF
:100400005B6803F03F037B60BB68002B0DD0244A80
:100410007B68B2FBF3F21F4B596847F6C0730B4081
:100420009B0903FB02F37B610CE01C4A7B68B2FB77
:10043000F3F2184B596847F6C0730B409B0903FB56
:1004400002F37B61134B5B6803F440331B0C0133F5
:100450005B00FB607A69FB68B2FBF3F30E4A136042
:1004600003E00D4B0D4A1A6000BF0A4B9B6803F076
:10047000F0031B090B4AD35CDBB23B61064B1A68E5
:100480003B6922FA03F3044A13601C37BD465DF84A
:10049000047B704700380240000000200024F40074
:1004A00000127A000400002080B483B000AF7860AE
:1004B0007B6800221A607B6800225A600C37BD46B8
:1004C0005DF8047B704700BF80B483B000AF7860F4
:1004D00039607B683A681A607B6800225A600C3782
:1004E000BD465DF8047B704780B485B000AF78608E
:1004F00039607B681B68002B07D17B683A681A60FB
:100500007B681A687B685A6009E07B681B68FB603F
:100510007B683A681A607B681B68FA685A6014370F
:10052000BD465DF8047B704780B483B000AF78604F
:1005300039607B685B68002B06D17B683A681A607B
:100540007B683A685A6006E07B685B683A685A6084
:100550007B683A685A600C37BD465DF8047B70478B
:1005600080B485B000AF78607B681B68002B01D138
:1005700000231AE07B681B685B68002B0ED07B6849
:100580001B685B68BB607B681B6800225A607B68E5
:100590001B68FB607B68BA681A6005E07B681B68B3
:1005A000FB607B6800221A60FB6818461437BD4662
:1005B0005DF8047B704700BF80B485B000AF786001
:1005C0007B685B68002B01D1002316E07B681B6809
:1005D000FB6002E0FB685B68FB60FB685A687B6855
:1005E0005B689A42F6D17B685B68BB60FB6800225F
:1005F0005A607B68FA685A60BB6818461437BD4673
:100600005DF8047B704700BF80B588B000AF234A17
:10061000224B1B6B43F040031363204B1B6B03F017
:100620004003BB60BB681D4A1C4B1B6B43F00203BD
:1006300013631A4B1B6B03F002037B607B68174A42
:10064000164B1B6B43F004031363144B1B6B03F03B
:1006500004033B603B6801233B614FF4C043FB60F4
:1006600000237B610323BB6107F10C030C4819468F
:1006700000F0C6F94FF40053FB6007F10C03094882
:10068000194600F0BDF92023FB6007F10C03064872
:10069000194600F0B5F92037BD4680BD003802404C
:1006A00000180240000402400008024080B586B0F5
:1006B00000AF0E4A0D4B1B6B43F0010313630B4B52
:1006C0001B6B03F001033B603B680023BB6001230D
:1006D0007B600023FB6003233B613B1D04481946FC
:1006E00000F08EF91837BD4680BD00BF00380240CB
:1006F0000000024080B400AF6848FEE780B400AF5D
:100700006748FEE780B582B000AF564B564A1A6084
:10071000544B00225A60554B554A1A60554B403B8A
:100720007B607B68514A53607B684FF08072DA636C
:10073000514A7B689A637B68504A5A637B684FF0E2
:1007400010321A627B684FF021325A627B684FF098
:1007500032329A627B684FF04332DA627B684FF044
:1007600054321A607B684FF065325A607B684FF0F4
:1007700076329A607B684FF08732DA607B684FF0A0
:1007800098321A617B684FF0A9325A617B684FF04A
:10079000BA329A617B684FF0CB32DA617B684FF0F6
:1007A000DC321A63364B403B3B603B68354A536052
:1007B0003B684FF08072DA63334A3B689A633B6868
:1007C0002E4A5A633B684FF001321A623B684FF081
:1007D00012325A623B684FF023329A623B684FF004
:1007E0003432DA623B684FF045321A603B684FF0B2
:1007F00056325A603B684FF067329A603B684FF060
:100800007832DA603B684FF089321A613B684FF00A
:100810009A325A613B684FF0AB329A613B684FF0B5
:10082000BC32DA613B684FF0CD321A631748FFF7EC
:100830003BFE0E4B16481946FFF746FE114B154876
:100840001946FFF741FE11481149FFF76DFE0F48A9
:100850001049FFF769FE104B024A1A600837BD467F
:1008600080BD00BF880800207C1200087C040020A6
:1008700088120008940C0020F5060008FFEFCDABAD
:100880008408002074040020FD0600086C04002089
:10089000640400205C04002090080020FFFFFFFF9C
:1008A000EEEEEEEE80B400AFBD465DF8047B70471F
:1008B00080B400AFFEE700BF80B400AFFEE700BF2A
:1008C00080B400AFFEE700BF80B400AFFEE700BF1A
:1008D00080B400AFBD465DF8047B704780B400AFC4
:1008E000BD465DF8047B704780B400AFBD465DF83F
:1008F000047B7047000000000000000000000000C2
:100900002DE9F00F0D4C24680D496944616000B574
:100910000C48FFF725FE5DF804EB0568D5F804D018
:10092000064B1B682B4600B521460648FFF7FCFD29
:100930005DF804EBBDE8F00F704700009008002060
:10094000000000006C040020AFF30080AFF30080D3
:10095000AFF30080AFF30080AFF30080AFF300800F
:10096000AFF30080AFF30080AFF30080AFF30080FF
:10097000AFF30080AFF30080AFF30080AFF30080EF
:100980000000000000000000000000000000000067
:100990000000000000000000000000000000000057
:1009A0000000000000000000000000000000000047
:1009B0000000000000000000000000000000000037
:1009C0000000000000000000000000000000000027
:1009D0000000000000000000000000000000000017
:1009E0000000000000000000000000000000000007
:1009F00000000000000000000000000000000000F7
:100A000080B489B000AF7860396000237B61002337
:100A10003B610023BB610023FB6171E1FB690122A3
:100A200002FA03F37B613B681A687B6913403B6100
:100A30003A697B699A4240F060813B685B68022BAF
:100A400003D03B685B68122B22D1FB69DA087B6814
:100A5000083253F82230BB61FB6903F007039B00A7
:100A60001A460F239340DB43BA691340BB613B68CE
:100A70001B69FA6902F0070292009340BA691343B6
:100A8000BB61FB69DA087B680832B96943F8221058
:100A90007B681B68BB61FB695B001A4603239340BC
:100AA000DB43BA691340BB613B685B6803F0030337
:100AB000FA6952009340BA691343BB617B68BA6913
:100AC0001A603B685B68012B0BD03B685B68022BAC
:100AD00007D03B685B68112B03D03B685B68122B27
:100AE0002FD17B689B68BB61FB695B001A460323BF
:100AF0009340DB43BA691340BB613B68DB68FA692A
:100B000052009340BA691343BB617B68BA699A602B
:100B10007B685B68BB61FB69012202FA03F3DB437C
:100B2000BA691340BB613B685B6803F010031A09A4
:100B3000FB6902FA03F3BA691343BB617B68BA69C4
:100B40005A607B68DB68BB61FB695B001A46032364
:100B50009340DB43BA691340BB613B689B68FA6909
:100B600052009340BA691343BB617B68BA69DA608B
:100B70003B685B6803F08053002B00F0BE80654A41
:100B8000644B5B6C43F480435364624B5B6C03F4D3
:100B90008043FB60FB68604AFB699B08023352F8A4
:100BA0002330BB61FB6903F003039B001A460F234C
:100BB0009340DB43BA691340BB617B68574A934259
:100BC00037D07B68564A934231D07B68554A93426E
:100BD0002BD07B68544A934225D07B68534A93427A
:100BE0001FD07B68524A934219D07B68514A934286
:100BF00013D07B68504A93420DD07B684F4A934292
:100C000007D07B684E4A934201D1092312E00A23A0
:100C100010E008230EE007230CE006230AE005237A
:100C200008E0042306E0032304E0022302E001239A
:100C300000E00023FA6902F0030292009340BA69CF
:100C40001343BB613449FB699B080233BA6941F81D
:100C500023203C4B1B68BB613B69DB43BA691340F3
:100C6000BB613B685B6803F48033002B03D0BA6937
:100C70003B691343BB61334ABB691360314B5B680B
:100C8000BB613B69DB43BA691340BB613B685B688E
:100C900003F40033002B03D0BA693B691343BB61F3
:100CA000284ABB695360274B9B68BB613B69DB43A8
:100CB000BA691340BB613B685B6803F48013002B87
:100CC00003D0BA693B691343BB611E4ABB69936099
:100CD0001C4BDB68BB613B69DB43BA691340BB61FA
:100CE0003B685B6803F40013002B03D0BA693B69CF
:100CF0001343BB61134ABB69D360FB690133FB61DA
:100D0000FB690F2B7FF68AAE2437BD465DF8047B66
:100D1000704700BF00380240003801400000024028
:100D20000004024000080240000C02400010024093
:100D30000014024000180240001C02400020024043
:100D400000240240003C014080B487B000AF7860CE
:100D5000396000233B610023FB600023BB6000235C
:100D60007B61DAE07B69012202FA03F33B613A68B6
:100D70003B691340FB60FA683B699A4240F0CA80C5
:100D80007B681A687B695B00194603238B40DB4351
:100D90001A407B681A607B69DA087B69D9087B682E
:100DA000083153F821107B6903F007039B001846B4
:100DB0000F238340DB4319407B68083243F822103D
:100DC0007B689A687B695B00194603238B40DB4391
:100DD0001A407B689A607B685A687B69012101FA36
:100DE00003F3DB431A407B685A607B68DA687B69EF
:100DF0005B00194603238B40DB431A407B68DA60B3
:100E00004A4A7B699B08023352F82330BB607B69F6
:100E100003F003039B001A460F239340BA68134064
:100E2000BB607B68424A934237D07B68414A934219
:100E300031D07B68404A93422BD07B683F4A934233
:100E400025D07B683E4A93421FD07B683D4A93423F
:100E500019D07B683C4A934213D07B683B4A93424B
:100E60000DD07B683A4A934207D07B68394A934257
:100E700001D1092312E00A2310E008230EE0072322
:100E80000CE006230AE0052308E0042306E0032320
:100E900004E0022302E0012300E000237A6902F06B
:100EA0000302920003FA02F2BB689A4232D17B69D4
:100EB00003F003039B001A460F239340BB601B48BB
:100EC0007B699B0819497A699208023251F822100D
:100ED000BA68D2430A40023340F823201E491E4B11
:100EE0001A68FB68DB4313400B601B491A4B5A68B6
:100EF000FB68DB4313404B601749174B9A68FB684C
:100F0000DB4313408B601449134BDA68FB68DB4307
:100F10001340CB607B6901337B617B690F2B7FF6CC
:100F200021AF1C37BD465DF8047B70470038014097
:100F3000000002400004024000080240000C024091
:100F4000001002400014024000180240001C024041
:100F50000020024000240240003C014080B485B0E3
:100F600000AF78600B467B807B681A697B881340F2
:100F7000002B02D00123FB7301E00023FB73FB7BFA
:100F800018461437BD465DF8047B704780B483B0C3
:100F900000AF78600B467B8013467B707B78002B1C
:100FA00003D07A887B689A6103E07B881A047B68A7
:100FB0009A610C37BD465DF8047B704780B483B0FE
:100FC00000AF78600B467B807B685A697B885A400B
:100FD0007B685A610C37BD465DF8047B704700BFE3
:100FE00080B485B000AF78600B467B804FF48033CF
:100FF000FB607A88FB681343FB60FA687B68DA6100
:101000007A887B68DA61FA687B68DA617B68DB6919
:10101000FB607B68DB6903F48033002B01D0002385
:1010200000E0012318461437BD465DF8047B704785
:1010300080B582B000AF0346FB80084B5A69FB883D
:101040001340002B06D0054AFB885361FB881846E5
:1010500000F006F80837BD4680BD00BF003C0140E7
:1010600080B483B000AF0346FB800C37BD465DF80B
:10107000047B704770B50F4E0F4D761BB61018BF2E
:10108000002405D0013455F8043B9847A642F9D115
:101090000A4E0B4D761B00F0E5F8B61018BF002481
:1010A00006D0013455F8043B9847A642F9D170BDEB
:1010B00070BD00BF9C1200089C120008A41200081A
:1010C0009C120008024B13B1024800F005B87047AB
:1010D00000000000E510000801460020024603461B
:1010E00000F016B838B5084B084DED1AAC1018BF13
:1010F000ED1805D0013C55F8043D9847002CF9D176
:10110000BDE8384000F0B4B8A4120008A8120008E6
:101110002DE9F047254C2568D5F848410646884614
:1011200092469946CCB360681F2818DC431C7EB1F8
:1011300004EB80050121C5F888A0D4F8887101FA74
:1011400000F21743022EC4F88871C5F808911ED02A
:101150000230636044F820800020BDE8F087144B23
:1011600003B34FF4C870AFF300800446D0B1D5F894
:101170004831002780E88800C5F8484138460123F7
:10118000C4F88871C4F88C71002EE1D0D0E7D4F88F
:101190008C110A43C4F88C21DAE705F5A674C5F86A
:1011A0004841C0E74FF0FF30BDE8F08798120008D3
:1011B00000000000DFF834D0002103E00C4B5B5846
:1011C000435004310B480C4B42189A42F6D30B4A59
:1011D00002E0002342F8043B094B9A42F9D3FFF79F
:1011E000B9F8FFF747FFFFF793F8704700000320B7
:1011F000A812000800000020400400204004002045
:10120000980C0020FEE7000009480A490A4A0B4BE7
:101210000B4C0C4D0C4E0D4FDFF83480DFF8349042
:10122000DFF834A0DFF834B0DFF834C001B4FEE7F3
:101230001111111122222222333333334444444406
:1012400055555555666666667777777788888888B6
:1012500099999999AAAAAAAABBBBBBBBCCCCCCCC66
:10126000DDDDDDDDF8B500BFF8BC08BC9E4670478B
:0C127000F8B500BFF8BC08BC9E467047F3
:10127C006D61696E5F746872656164007468726533
:10128C00616420233100000043000000180000209E
:08129C00C5100008250200083E
:0412A400010200083B
:1012A8000024F40000000000000000000102030414
:1012B80006070809000000000000000004030020E1
:1012C8006C030020D4030020000000000000000090
:1012D8000000000000000000000000000000000006
:1012E8000000000000000000000000009412000848
:1012F80000000000000000000000000000000000E6
:1013080000000000000000000000000000000000D5
:1013180000000000000000000000000000000000C5
:1013280000000000000000000000000000000000B5
:1013380000000000000000000000000000000000A5
:101348000000000000000000000000000000000095
:101358000000000000000000000000000000000085
:1013680001000000000000000E33CDAB34126DE622
:10137800ECDE05000B00000000000000000000008B
:101388000000000000000000000000000000000055
:101398000000000000000000000000000000000045
:1013A8000000000000000000000000000000000035
:1013B8000000000000000000000000000000000025
:04000005080011B529
:00000001FF
